{
  "address": "0x92dac859F060EF46CB8Cd8d71A5fab7c07d8e899",
  "abi": [
    {
      "inputs": [
        {
          "internalType": "string",
          "name": "uri_",
          "type": "string"
        }
      ],
      "stateMutability": "nonpayable",
      "type": "constructor"
    },
    {
      "anonymous": false,
      "inputs": [
        {
          "indexed": true,
          "internalType": "address",
          "name": "account",
          "type": "address"
        },
        {
          "indexed": true,
          "internalType": "address",
          "name": "operator",
          "type": "address"
        },
        {
          "indexed": false,
          "internalType": "bool",
          "name": "approved",
          "type": "bool"
        }
      ],
      "name": "ApprovalForAll",
      "type": "event"
    },
    {
      "anonymous": false,
      "inputs": [
        {
          "indexed": true,
          "internalType": "address",
          "name": "from",
          "type": "address"
        },
        {
          "indexed": false,
          "internalType": "uint256",
          "name": "tokenId",
          "type": "uint256"
        },
        {
          "indexed": false,
          "internalType": "uint256",
          "name": "amount",
          "type": "uint256"
        }
      ],
      "name": "BurnCalled",
      "type": "event"
    },
    {
      "anonymous": false,
      "inputs": [
        {
          "indexed": true,
          "internalType": "address",
          "name": "to",
          "type": "address"
        },
        {
          "indexed": false,
          "internalType": "uint256",
          "name": "tokenId",
          "type": "uint256"
        },
        {
          "indexed": false,
          "internalType": "uint256",
          "name": "amount",
          "type": "uint256"
        }
      ],
      "name": "MintToClaimerCalled",
      "type": "event"
    },
    {
      "anonymous": false,
      "inputs": [
        {
          "indexed": true,
          "internalType": "bytes32",
          "name": "role",
          "type": "bytes32"
        },
        {
          "indexed": true,
          "internalType": "bytes32",
          "name": "previousAdminRole",
          "type": "bytes32"
        },
        {
          "indexed": true,
          "internalType": "bytes32",
          "name": "newAdminRole",
          "type": "bytes32"
        }
      ],
      "name": "RoleAdminChanged",
      "type": "event"
    },
    {
      "anonymous": false,
      "inputs": [
        {
          "indexed": true,
          "internalType": "bytes32",
          "name": "role",
          "type": "bytes32"
        },
        {
          "indexed": true,
          "internalType": "address",
          "name": "account",
          "type": "address"
        },
        {
          "indexed": true,
          "internalType": "address",
          "name": "sender",
          "type": "address"
        }
      ],
      "name": "RoleGranted",
      "type": "event"
    },
    {
      "anonymous": false,
      "inputs": [
        {
          "indexed": true,
          "internalType": "bytes32",
          "name": "role",
          "type": "bytes32"
        },
        {
          "indexed": true,
          "internalType": "address",
          "name": "account",
          "type": "address"
        },
        {
          "indexed": true,
          "internalType": "address",
          "name": "sender",
          "type": "address"
        }
      ],
      "name": "RoleRevoked",
      "type": "event"
    },
    {
      "anonymous": false,
      "inputs": [
        {
          "indexed": true,
          "internalType": "address",
          "name": "operator",
          "type": "address"
        },
        {
          "indexed": true,
          "internalType": "address",
          "name": "from",
          "type": "address"
        },
        {
          "indexed": true,
          "internalType": "address",
          "name": "to",
          "type": "address"
        },
        {
          "indexed": false,
          "internalType": "uint256[]",
          "name": "ids",
          "type": "uint256[]"
        },
        {
          "indexed": false,
          "internalType": "uint256[]",
          "name": "values",
          "type": "uint256[]"
        }
      ],
      "name": "TransferBatch",
      "type": "event"
    },
    {
      "anonymous": false,
      "inputs": [
        {
          "indexed": true,
          "internalType": "address",
          "name": "operator",
          "type": "address"
        },
        {
          "indexed": true,
          "internalType": "address",
          "name": "from",
          "type": "address"
        },
        {
          "indexed": true,
          "internalType": "address",
          "name": "to",
          "type": "address"
        },
        {
          "indexed": false,
          "internalType": "uint256",
          "name": "id",
          "type": "uint256"
        },
        {
          "indexed": false,
          "internalType": "uint256",
          "name": "value",
          "type": "uint256"
        }
      ],
      "name": "TransferSingle",
      "type": "event"
    },
    {
      "anonymous": false,
      "inputs": [
        {
          "indexed": false,
          "internalType": "string",
          "name": "value",
          "type": "string"
        },
        {
          "indexed": true,
          "internalType": "uint256",
          "name": "id",
          "type": "uint256"
        }
      ],
      "name": "URI",
      "type": "event"
    },
    {
      "inputs": [],
      "name": "DEFAULT_ADMIN_ROLE",
      "outputs": [
        {
          "internalType": "bytes32",
          "name": "",
          "type": "bytes32"
        }
      ],
      "stateMutability": "view",
      "type": "function"
    },
    {
      "inputs": [],
      "name": "MINTER_ROLE",
      "outputs": [
        {
          "internalType": "bytes32",
          "name": "",
          "type": "bytes32"
        }
      ],
      "stateMutability": "view",
      "type": "function"
    },
    {
      "inputs": [
        {
          "internalType": "address",
          "name": "account",
          "type": "address"
        },
        {
          "internalType": "uint256",
          "name": "id",
          "type": "uint256"
        }
      ],
      "name": "balanceOf",
      "outputs": [
        {
          "internalType": "uint256",
          "name": "",
          "type": "uint256"
        }
      ],
      "stateMutability": "view",
      "type": "function"
    },
    {
      "inputs": [
        {
          "internalType": "address[]",
          "name": "accounts",
          "type": "address[]"
        },
        {
          "internalType": "uint256[]",
          "name": "ids",
          "type": "uint256[]"
        }
      ],
      "name": "balanceOfBatch",
      "outputs": [
        {
          "internalType": "uint256[]",
          "name": "",
          "type": "uint256[]"
        }
      ],
      "stateMutability": "view",
      "type": "function"
    },
    {
      "inputs": [
        {
          "internalType": "uint256",
          "name": "tokenId_",
          "type": "uint256"
        },
        {
          "internalType": "uint256",
          "name": "amount_",
          "type": "uint256"
        }
      ],
      "name": "burn",
      "outputs": [],
      "stateMutability": "nonpayable",
      "type": "function"
    },
    {
      "inputs": [
        {
          "internalType": "bytes32",
          "name": "role",
          "type": "bytes32"
        }
      ],
      "name": "getRoleAdmin",
      "outputs": [
        {
          "internalType": "bytes32",
          "name": "",
          "type": "bytes32"
        }
      ],
      "stateMutability": "view",
      "type": "function"
    },
    {
      "inputs": [
        {
          "internalType": "bytes32",
          "name": "role",
          "type": "bytes32"
        },
        {
          "internalType": "address",
          "name": "account",
          "type": "address"
        }
      ],
      "name": "grantRole",
      "outputs": [],
      "stateMutability": "nonpayable",
      "type": "function"
    },
    {
      "inputs": [
        {
          "internalType": "bytes32",
          "name": "role",
          "type": "bytes32"
        },
        {
          "internalType": "address",
          "name": "account",
          "type": "address"
        }
      ],
      "name": "hasRole",
      "outputs": [
        {
          "internalType": "bool",
          "name": "",
          "type": "bool"
        }
      ],
      "stateMutability": "view",
      "type": "function"
    },
    {
      "inputs": [
        {
          "internalType": "address",
          "name": "account",
          "type": "address"
        },
        {
          "internalType": "address",
          "name": "operator",
          "type": "address"
        }
      ],
      "name": "isApprovedForAll",
      "outputs": [
        {
          "internalType": "bool",
          "name": "",
          "type": "bool"
        }
      ],
      "stateMutability": "view",
      "type": "function"
    },
    {
      "inputs": [
        {
          "internalType": "address",
          "name": "to_",
          "type": "address"
        },
        {
          "internalType": "uint256",
          "name": "tokenId_",
          "type": "uint256"
        },
        {
          "internalType": "uint256",
          "name": "amount_",
          "type": "uint256"
        }
      ],
      "name": "mintToClaimer",
      "outputs": [
        {
          "internalType": "uint256",
          "name": "",
          "type": "uint256"
        },
        {
          "internalType": "uint256",
          "name": "",
          "type": "uint256"
        }
      ],
      "stateMutability": "nonpayable",
      "type": "function"
    },
    {
      "inputs": [
        {
          "internalType": "bytes32",
          "name": "role",
          "type": "bytes32"
        },
        {
          "internalType": "address",
          "name": "account",
          "type": "address"
        }
      ],
      "name": "renounceRole",
      "outputs": [],
      "stateMutability": "nonpayable",
      "type": "function"
    },
    {
      "inputs": [
        {
          "internalType": "bytes32",
          "name": "role",
          "type": "bytes32"
        },
        {
          "internalType": "address",
          "name": "account",
          "type": "address"
        }
      ],
      "name": "revokeRole",
      "outputs": [],
      "stateMutability": "nonpayable",
      "type": "function"
    },
    {
      "inputs": [
        {
          "internalType": "address",
          "name": "from",
          "type": "address"
        },
        {
          "internalType": "address",
          "name": "to",
          "type": "address"
        },
        {
          "internalType": "uint256[]",
          "name": "ids",
          "type": "uint256[]"
        },
        {
          "internalType": "uint256[]",
          "name": "amounts",
          "type": "uint256[]"
        },
        {
          "internalType": "bytes",
          "name": "data",
          "type": "bytes"
        }
      ],
      "name": "safeBatchTransferFrom",
      "outputs": [],
      "stateMutability": "nonpayable",
      "type": "function"
    },
    {
      "inputs": [
        {
          "internalType": "address",
          "name": "from",
          "type": "address"
        },
        {
          "internalType": "address",
          "name": "to",
          "type": "address"
        },
        {
          "internalType": "uint256",
          "name": "id",
          "type": "uint256"
        },
        {
          "internalType": "uint256",
          "name": "amount",
          "type": "uint256"
        },
        {
          "internalType": "bytes",
          "name": "data",
          "type": "bytes"
        }
      ],
      "name": "safeTransferFrom",
      "outputs": [],
      "stateMutability": "nonpayable",
      "type": "function"
    },
    {
      "inputs": [
        {
          "internalType": "address",
          "name": "operator",
          "type": "address"
        },
        {
          "internalType": "bool",
          "name": "approved",
          "type": "bool"
        }
      ],
      "name": "setApprovalForAll",
      "outputs": [],
      "stateMutability": "nonpayable",
      "type": "function"
    },
    {
      "inputs": [
        {
          "internalType": "bytes4",
          "name": "interfaceId",
          "type": "bytes4"
        }
      ],
      "name": "supportsInterface",
      "outputs": [
        {
          "internalType": "bool",
          "name": "",
          "type": "bool"
        }
      ],
      "stateMutability": "view",
      "type": "function"
    },
    {
      "inputs": [
        {
          "internalType": "uint256",
          "name": "",
          "type": "uint256"
        }
      ],
      "name": "uri",
      "outputs": [
        {
          "internalType": "string",
          "name": "",
          "type": "string"
        }
      ],
      "stateMutability": "view",
      "type": "function"
    }
  ],
  "transactionHash": "0xffe55c6842328a3b86de45ed1f8f94f1fa69302298cee0aa9e10fd8041a4f6e6",
  "args": [
    "https://infomonpublicresource.blob.core.windows.net/pet-public/metadata-test-1155/"
  ],
  "numDeployments": 1,
  "solcInputHash": "9e02aae774b8a354a63858f22783f133",
  "bytecode": "0x608060405234801561001057600080fd5b506040516120bc3803806120bc83398101604081905261002f91610145565b8061003981610075565b50610045600033610085565b61006f7f9f2df0fed2c77648de5860a4cc508cd0818c85b8b8a1ab4ceeef8d981c8956a633610085565b50610358565b6002610081828261029a565b5050565b60008281526003602090815260408083206001600160a01b0385168452909152902054610081908390839060ff166100815760008281526003602090815260408083206001600160a01b03851684529091529020805460ff191660011790556100eb3390565b6001600160a01b0316816001600160a01b0316837f2f8788117e7eff1d82e926ec794901d17c78024a50270940304540a733656f0d60405160405180910390a45050565b634e487b7160e01b600052604160045260246000fd5b60006020828403121561015757600080fd5b81516001600160401b0381111561016d57600080fd5b8201601f8101841361017e57600080fd5b80516001600160401b038111156101975761019761012f565b604051601f8201601f19908116603f011681016001600160401b03811182821017156101c5576101c561012f565b6040528181528282016020018610156101dd57600080fd5b60005b828110156101fc576020818501810151838301820152016101e0565b50600091810160200191909152949350505050565b600181811c9082168061022557607f821691505b60208210810361024557634e487b7160e01b600052602260045260246000fd5b50919050565b601f82111561029557806000526020600020601f840160051c810160208510156102725750805b601f840160051c820191505b81811015610292576000815560010161027e565b50505b505050565b81516001600160401b038111156102b3576102b361012f565b6102c7816102c18454610211565b8461024b565b6020601f8211600181146102fb57600083156102e35750848201515b600019600385901b1c1916600184901b178455610292565b600084815260208120601f198516915b8281101561032b578785015182556020948501946001909201910161030b565b50848210156103495786840151600019600387901b60f8161c191681555b50505050600190811b01905550565b611d55806103676000396000f3fe608060405234801561001057600080fd5b506004361061010a5760003560e01c80634e1273f4116100a2578063b390c0ab11610071578063b390c0ab1461024c578063d53913931461025f578063d547741f14610286578063e985e9c514610299578063f242432a146102d557600080fd5b80634e1273f4146101fe57806391d148541461021e578063a217fddf14610231578063a22cb4651461023957600080fd5b80632eb2c2d6116100de5780632eb2c2d61461019b5780632f2ff15d146101b057806335f45384146101c357806336568abe146101eb57600080fd5b8062fdd58e1461010f57806301ffc9a7146101355780630e89341c14610158578063248a9ca314610178575b600080fd5b61012261011d366004611420565b6102e8565b6040519081526020015b60405180910390f35b610148610143366004611460565b610381565b604051901515815260200161012c565b61016b61016636600461147d565b61038c565b60405161012c91906114e6565b61012261018636600461147d565b60009081526003602052604090206001015490565b6101ae6101a9366004611645565b610420565b005b6101ae6101be3660046116f8565b61046c565b6101d66101d1366004611724565b610496565b6040805192835260208301919091520161012c565b6101ae6101f93660046116f8565b61052e565b61021161020c366004611757565b6105ac565b60405161012c9190611866565b61014861022c3660046116f8565b6106cd565b610122600081565b6101ae610247366004611879565b6106f8565b6101ae61025a3660046118b5565b610703565b6101227f9f2df0fed2c77648de5860a4cc508cd0818c85b8b8a1ab4ceeef8d981c8956a681565b6101ae6102943660046116f8565b61074d565b6101486102a73660046118d7565b6001600160a01b03918216600090815260016020908152604080832093909416825291909152205460ff1690565b6101ae6102e3366004611901565b610772565b60006001600160a01b0383166103585760405162461bcd60e51b815260206004820152602a60248201527f455243313135353a2061646472657373207a65726f206973206e6f742061207660448201526930b634b21037bbb732b960b11b60648201526084015b60405180910390fd5b506000818152602081815260408083206001600160a01b03861684529091529020545b92915050565b600061037b826107b7565b60606002805461039b90611959565b80601f01602080910402602001604051908101604052809291908181526020018280546103c790611959565b80156104145780601f106103e957610100808354040283529160200191610414565b820191906000526020600020905b8154815290600101906020018083116103f757829003601f168201915b50505050509050919050565b6001600160a01b03851633148061043c575061043c85336102a7565b6104585760405162461bcd60e51b815260040161034f90611993565b61046585858585856107dc565b5050505050565b600082815260036020526040902060010154610487816109b2565b61049183836109bf565b505050565b6000807f9f2df0fed2c77648de5860a4cc508cd0818c85b8b8a1ab4ceeef8d981c8956a66104c3816109b2565b6104de86868660405180602001604052806000815250610a45565b60408051868152602081018690526001600160a01b038816917f059c0044e1a1ea277414135a2acb8b5edb0ca4e72fb24b2e8a13fe2657862357910160405180910390a250929491935090915050565b6001600160a01b038116331461059e5760405162461bcd60e51b815260206004820152602f60248201527f416363657373436f6e74726f6c3a2063616e206f6e6c792072656e6f756e636560448201526e103937b632b9903337b91039b2b63360891b606482015260840161034f565b6105a88282610b59565b5050565b606081518351146106115760405162461bcd60e51b815260206004820152602960248201527f455243313135353a206163636f756e747320616e6420696473206c656e677468604482015268040dad2e6dac2e8c6d60bb1b606482015260840161034f565b600083516001600160401b0381111561062c5761062c6114f9565b604051908082528060200260200182016040528015610655578160200160208202803683370190505b50905060005b84518110156106c5576106a0858281518110610679576106796119e1565b6020026020010151858381518110610693576106936119e1565b60200260200101516102e8565b8282815181106106b2576106b26119e1565b602090810291909101015260010161065b565b509392505050565b60009182526003602090815260408084206001600160a01b0393909316845291905290205460ff1690565b6105a8338383610bc0565b61070e338383610ca0565b604080518381526020810183905233917f2e843ef4bc6350bde71eef3ee949e6f5aea7cf62dd8ab90ba63a97b90f544224910160405180910390a25050565b600082815260036020526040902060010154610768816109b2565b6104918383610b59565b6001600160a01b03851633148061078e575061078e85336102a7565b6107aa5760405162461bcd60e51b815260040161034f90611993565b6104658585858585610e1c565b60006001600160e01b03198216637965db0b60e01b148061037b575061037b82610f46565b815183511461083e5760405162461bcd60e51b815260206004820152602860248201527f455243313135353a2069647320616e6420616d6f756e7473206c656e677468206044820152670dad2e6dac2e8c6d60c31b606482015260840161034f565b6001600160a01b0384166108645760405162461bcd60e51b815260040161034f906119f7565b3360005b8451811015610944576000858281518110610885576108856119e1565b6020026020010151905060008583815181106108a3576108a36119e1565b602090810291909101810151600084815280835260408082206001600160a01b038e1683529093529190912054909150818110156108f35760405162461bcd60e51b815260040161034f90611a3c565b6000838152602081815260408083206001600160a01b038e8116855292528083208585039055908b16825281208054849290610930908490611a9c565b909155505060019093019250610868915050565b50846001600160a01b0316866001600160a01b0316826001600160a01b03167f4a39dc06d4c0dbc64b70af90fd698a233a518aa5d07e595d983b8c0526c8f7fb8787604051610994929190611aaf565b60405180910390a46109aa818787878787610f96565b505050505050565b6109bc81336110f1565b50565b6109c982826106cd565b6105a85760008281526003602090815260408083206001600160a01b03851684529091529020805460ff19166001179055610a013390565b6001600160a01b0316816001600160a01b0316837f2f8788117e7eff1d82e926ec794901d17c78024a50270940304540a733656f0d60405160405180910390a45050565b6001600160a01b038416610aa55760405162461bcd60e51b815260206004820152602160248201527f455243313135353a206d696e7420746f20746865207a65726f206164647265736044820152607360f81b606482015260840161034f565b336000610ab18561114a565b90506000610abe8561114a565b90506000868152602081815260408083206001600160a01b038b16845290915281208054879290610af0908490611a9c565b909155505060408051878152602081018790526001600160a01b03808a1692600092918716917fc3d58168c5ae7397731d063d5bbf3d657854427343f4c083240f7aacaa2d0f62910160405180910390a4610b5083600089898989611195565b50505050505050565b610b6382826106cd565b156105a85760008281526003602090815260408083206001600160a01b0385168085529252808320805460ff1916905551339285917ff6391f5c32d9c69d2a47ea670b442974b53935d1edc7fd64eb21e047a839171b9190a45050565b816001600160a01b0316836001600160a01b031603610c335760405162461bcd60e51b815260206004820152602960248201527f455243313135353a2073657474696e6720617070726f76616c20737461747573604482015268103337b91039b2b63360b91b606482015260840161034f565b6001600160a01b03838116600081815260016020908152604080832094871680845294825291829020805460ff191686151590811790915591519182527f17307eab39ab6107e8899845ad3d59bd9653f200f220920489ca2b5937696c31910160405180910390a3505050565b6001600160a01b038316610d025760405162461bcd60e51b815260206004820152602360248201527f455243313135353a206275726e2066726f6d20746865207a65726f206164647260448201526265737360e81b606482015260840161034f565b336000610d0e8461114a565b90506000610d1b8461114a565b60408051602080820183526000918290528882528181528282206001600160a01b038b1683529052205490915084811015610da45760405162461bcd60e51b8152602060048201526024808201527f455243313135353a206275726e20616d6f756e7420657863656564732062616c604482015263616e636560e01b606482015260840161034f565b6000868152602081815260408083206001600160a01b038b81168086529184528285208a8703905582518b81529384018a90529092908816917fc3d58168c5ae7397731d063d5bbf3d657854427343f4c083240f7aacaa2d0f62910160405180910390a4604080516020810190915260009052610b50565b6001600160a01b038416610e425760405162461bcd60e51b815260040161034f906119f7565b336000610e4e8561114a565b90506000610e5b8561114a565b90506000868152602081815260408083206001600160a01b038c16845290915290205485811015610e9e5760405162461bcd60e51b815260040161034f90611a3c565b6000878152602081815260408083206001600160a01b038d8116855292528083208985039055908a16825281208054889290610edb908490611a9c565b909155505060408051888152602081018890526001600160a01b03808b16928c821692918816917fc3d58168c5ae7397731d063d5bbf3d657854427343f4c083240f7aacaa2d0f62910160405180910390a4610f3b848a8a8a8a8a611195565b505050505050505050565b60006001600160e01b03198216636cdb3d1360e11b1480610f7757506001600160e01b031982166303a24d0760e21b145b8061037b57506301ffc9a760e01b6001600160e01b031983161461037b565b6001600160a01b0384163b156109aa5760405163bc197c8160e01b81526001600160a01b0385169063bc197c8190610fda9089908990889088908890600401611add565b6020604051808303816000875af1925050508015611015575060408051601f3d908101601f1916820190925261101291810190611b3b565b60015b6110c157611021611b58565b806308c379a00361105a5750611035611b74565b80611040575061105c565b8060405162461bcd60e51b815260040161034f91906114e6565b505b60405162461bcd60e51b815260206004820152603460248201527f455243313135353a207472616e7366657220746f206e6f6e2d455243313135356044820152732932b1b2b4bb32b91034b6b83632b6b2b73a32b960611b606482015260840161034f565b6001600160e01b0319811663bc197c8160e01b14610b505760405162461bcd60e51b815260040161034f90611bef565b6110fb82826106cd565b6105a85761110881611250565b611113836020611262565b604051602001611124929190611c37565b60408051601f198184030181529082905262461bcd60e51b825261034f916004016114e6565b60408051600180825281830190925260609160009190602080830190803683370190505090508281600081518110611184576111846119e1565b602090810291909101015292915050565b6001600160a01b0384163b156109aa5760405163f23a6e6160e01b81526001600160a01b0385169063f23a6e61906111d99089908990889088908890600401611cac565b6020604051808303816000875af1925050508015611214575060408051601f3d908101601f1916820190925261121191810190611b3b565b60015b61122057611021611b58565b6001600160e01b0319811663f23a6e6160e01b14610b505760405162461bcd60e51b815260040161034f90611bef565b606061037b6001600160a01b03831660145b60606000611271836002611cf1565b61127c906002611a9c565b6001600160401b03811115611293576112936114f9565b6040519080825280601f01601f1916602001820160405280156112bd576020820181803683370190505b509050600360fc1b816000815181106112d8576112d86119e1565b60200101906001600160f81b031916908160001a905350600f60fb1b81600181518110611307576113076119e1565b60200101906001600160f81b031916908160001a905350600061132b846002611cf1565b611336906001611a9c565b90505b60018111156113ae576f181899199a1a9b1b9c1cb0b131b232b360811b85600f166010811061136a5761136a6119e1565b1a60f81b828281518110611380576113806119e1565b60200101906001600160f81b031916908160001a90535060049490941c936113a781611d08565b9050611339565b5083156113fd5760405162461bcd60e51b815260206004820181905260248201527f537472696e67733a20686578206c656e67746820696e73756666696369656e74604482015260640161034f565b9392505050565b80356001600160a01b038116811461141b57600080fd5b919050565b6000806040838503121561143357600080fd5b61143c83611404565b946020939093013593505050565b6001600160e01b0319811681146109bc57600080fd5b60006020828403121561147257600080fd5b81356113fd8161144a565b60006020828403121561148f57600080fd5b5035919050565b60005b838110156114b1578181015183820152602001611499565b50506000910152565b600081518084526114d2816020860160208601611496565b601f01601f19169290920160200192915050565b6020815260006113fd60208301846114ba565b634e487b7160e01b600052604160045260246000fd5b601f8201601f191681016001600160401b0381118282101715611534576115346114f9565b6040525050565b60006001600160401b03821115611554576115546114f9565b5060051b60200190565b600082601f83011261156f57600080fd5b813561157a8161153b565b604051611587828261150f565b80915082815260208101915060208360051b8601019250858311156115ab57600080fd5b602085015b838110156115c85780358352602092830192016115b0565b5095945050505050565b600082601f8301126115e357600080fd5b81356001600160401b038111156115fc576115fc6114f9565b604051611613601f8301601f19166020018261150f565b81815284602083860101111561162857600080fd5b816020850160208301376000918101602001919091529392505050565b600080600080600060a0868803121561165d57600080fd5b61166686611404565b945061167460208701611404565b935060408601356001600160401b0381111561168f57600080fd5b61169b8882890161155e565b93505060608601356001600160401b038111156116b757600080fd5b6116c38882890161155e565b92505060808601356001600160401b038111156116df57600080fd5b6116eb888289016115d2565b9150509295509295909350565b6000806040838503121561170b57600080fd5b8235915061171b60208401611404565b90509250929050565b60008060006060848603121561173957600080fd5b61174284611404565b95602085013595506040909401359392505050565b6000806040838503121561176a57600080fd5b82356001600160401b0381111561178057600080fd5b8301601f8101851361179157600080fd5b803561179c8161153b565b6040516117a9828261150f565b80915082815260208101915060208360051b8501019250878311156117cd57600080fd5b6020840193505b828410156117f6576117e584611404565b8252602093840193909101906117d4565b945050505060208301356001600160401b0381111561181457600080fd5b6118208582860161155e565b9150509250929050565b600081518084526020840193506020830160005b8281101561185c57815186526020958601959091019060010161183e565b5093949350505050565b6020815260006113fd602083018461182a565b6000806040838503121561188c57600080fd5b61189583611404565b9150602083013580151581146118aa57600080fd5b809150509250929050565b600080604083850312156118c857600080fd5b50508035926020909101359150565b600080604083850312156118ea57600080fd5b6118f383611404565b915061171b60208401611404565b600080600080600060a0868803121561191957600080fd5b61192286611404565b945061193060208701611404565b9350604086013592506060860135915060808601356001600160401b038111156116df57600080fd5b600181811c9082168061196d57607f821691505b60208210810361198d57634e487b7160e01b600052602260045260246000fd5b50919050565b6020808252602e908201527f455243313135353a2063616c6c6572206973206e6f7420746f6b656e206f776e60408201526d195c881bdc88185c1c1c9bdd995960921b606082015260800190565b634e487b7160e01b600052603260045260246000fd5b60208082526025908201527f455243313135353a207472616e7366657220746f20746865207a65726f206164604082015264647265737360d81b606082015260800190565b6020808252602a908201527f455243313135353a20696e73756666696369656e742062616c616e636520666f60408201526939103a3930b739b332b960b11b606082015260800190565b634e487b7160e01b600052601160045260246000fd5b8082018082111561037b5761037b611a86565b604081526000611ac2604083018561182a565b8281036020840152611ad4818561182a565b95945050505050565b6001600160a01b0386811682528516602082015260a060408201819052600090611b099083018661182a565b8281036060840152611b1b818661182a565b90508281036080840152611b2f81856114ba565b98975050505050505050565b600060208284031215611b4d57600080fd5b81516113fd8161144a565b600060033d1115611b715760046000803e5060005160e01c5b90565b600060443d1015611b825790565b6040513d600319016004823e80513d60248201116001600160401b0382111715611bab57505090565b80820180516001600160401b03811115611bc6575050505090565b3d8401600319018282016020011115611be0575050505090565b6106c56020828501018561150f565b60208082526028908201527f455243313135353a204552433131353552656365697665722072656a656374656040820152676420746f6b656e7360c01b606082015260800190565b7f416363657373436f6e74726f6c3a206163636f756e7420000000000000000000815260008351611c6f816017850160208801611496565b7001034b99036b4b9b9b4b733903937b6329607d1b6017918401918201528351611ca0816028840160208801611496565b01602801949350505050565b6001600160a01b03868116825285166020820152604081018490526060810183905260a060808201819052600090611ce6908301846114ba565b979650505050505050565b808202811582820484141761037b5761037b611a86565b600081611d1757611d17611a86565b50600019019056fea2646970667358221220da6d768d91136acfb566e978b92e787eb1d12c4da86cf8a3ba0804d2ab0cbf4b64736f6c634300081b0033",
  "devdoc": {
    "events": {
      "ApprovalForAll(address,address,bool)": {
        "details": "Emitted when `account` grants or revokes permission to `operator` to transfer their tokens, according to `approved`."
      },
      "RoleAdminChanged(bytes32,bytes32,bytes32)": {
        "details": "Emitted when `newAdminRole` is set as ``role``'s admin role, replacing `previousAdminRole` `DEFAULT_ADMIN_ROLE` is the starting admin for all roles, despite {RoleAdminChanged} not being emitted signaling this. _Available since v3.1._"
      },
      "RoleGranted(bytes32,address,address)": {
        "details": "Emitted when `account` is granted `role`. `sender` is the account that originated the contract call, an admin role bearer except when using {AccessControl-_setupRole}."
      },
      "RoleRevoked(bytes32,address,address)": {
        "details": "Emitted when `account` is revoked `role`. `sender` is the account that originated the contract call:   - if using `revokeRole`, it is the admin role bearer   - if using `renounceRole`, it is the role bearer (i.e. `account`)"
      },
      "TransferBatch(address,address,address,uint256[],uint256[])": {
        "details": "Equivalent to multiple {TransferSingle} events, where `operator`, `from` and `to` are the same for all transfers."
      },
      "TransferSingle(address,address,address,uint256,uint256)": {
        "details": "Emitted when `value` tokens of token type `id` are transferred from `from` to `to` by `operator`."
      },
      "URI(string,uint256)": {
        "details": "Emitted when the URI for token type `id` changes to `value`, if it is a non-programmatic URI. If an {URI} event was emitted for `id`, the standard https://eips.ethereum.org/EIPS/eip-1155#metadata-extensions[guarantees] that `value` will equal the value returned by {IERC1155MetadataURI-uri}."
      }
    },
    "kind": "dev",
    "methods": {
      "balanceOf(address,uint256)": {
        "details": "See {IERC1155-balanceOf}. Requirements: - `account` cannot be the zero address."
      },
      "balanceOfBatch(address[],uint256[])": {
        "details": "See {IERC1155-balanceOfBatch}. Requirements: - `accounts` and `ids` must have the same length."
      },
      "getRoleAdmin(bytes32)": {
        "details": "Returns the admin role that controls `role`. See {grantRole} and {revokeRole}. To change a role's admin, use {_setRoleAdmin}."
      },
      "grantRole(bytes32,address)": {
        "details": "Grants `role` to `account`. If `account` had not been already granted `role`, emits a {RoleGranted} event. Requirements: - the caller must have ``role``'s admin role. May emit a {RoleGranted} event."
      },
      "hasRole(bytes32,address)": {
        "details": "Returns `true` if `account` has been granted `role`."
      },
      "isApprovedForAll(address,address)": {
        "details": "See {IERC1155-isApprovedForAll}."
      },
      "renounceRole(bytes32,address)": {
        "details": "Revokes `role` from the calling account. Roles are often managed via {grantRole} and {revokeRole}: this function's purpose is to provide a mechanism for accounts to lose their privileges if they are compromised (such as when a trusted device is misplaced). If the calling account had been revoked `role`, emits a {RoleRevoked} event. Requirements: - the caller must be `account`. May emit a {RoleRevoked} event."
      },
      "revokeRole(bytes32,address)": {
        "details": "Revokes `role` from `account`. If `account` had been granted `role`, emits a {RoleRevoked} event. Requirements: - the caller must have ``role``'s admin role. May emit a {RoleRevoked} event."
      },
      "safeBatchTransferFrom(address,address,uint256[],uint256[],bytes)": {
        "details": "See {IERC1155-safeBatchTransferFrom}."
      },
      "safeTransferFrom(address,address,uint256,uint256,bytes)": {
        "details": "See {IERC1155-safeTransferFrom}."
      },
      "setApprovalForAll(address,bool)": {
        "details": "See {IERC1155-setApprovalForAll}."
      },
      "uri(uint256)": {
        "details": "See {IERC1155MetadataURI-uri}. This implementation returns the same URI for *all* token types. It relies on the token type ID substitution mechanism https://eips.ethereum.org/EIPS/eip-1155#metadata[defined in the EIP]. Clients calling this function must replace the `\\{id\\}` substring with the actual token type ID."
      }
    },
    "version": 1
  },
  "userdoc": {
    "kind": "user",
    "methods": {},
    "version": 1
  },
  "storageLayout": {
    "storage": [
      {
        "astId": 414,
        "contract": "src/infomon/InfomonERC1155.sol:InfomonERC1155",
        "label": "_balances",
        "offset": 0,
        "slot": "0",
        "type": "t_mapping(t_uint256,t_mapping(t_address,t_uint256))"
      },
      {
        "astId": 420,
        "contract": "src/infomon/InfomonERC1155.sol:InfomonERC1155",
        "label": "_operatorApprovals",
        "offset": 0,
        "slot": "1",
        "type": "t_mapping(t_address,t_mapping(t_address,t_bool))"
      },
      {
        "astId": 422,
        "contract": "src/infomon/InfomonERC1155.sol:InfomonERC1155",
        "label": "_uri",
        "offset": 0,
        "slot": "2",
        "type": "t_string_storage"
      },
      {
        "astId": 24,
        "contract": "src/infomon/InfomonERC1155.sol:InfomonERC1155",
        "label": "_roles",
        "offset": 0,
        "slot": "3",
        "type": "t_mapping(t_bytes32,t_struct(RoleData)19_storage)"
      }
    ],
    "types": {
      "t_address": {
        "encoding": "inplace",
        "label": "address",
        "numberOfBytes": "20"
      },
      "t_bool": {
        "encoding": "inplace",
        "label": "bool",
        "numberOfBytes": "1"
      },
      "t_bytes32": {
        "encoding": "inplace",
        "label": "bytes32",
        "numberOfBytes": "32"
      },
      "t_mapping(t_address,t_bool)": {
        "encoding": "mapping",
        "key": "t_address",
        "label": "mapping(address => bool)",
        "numberOfBytes": "32",
        "value": "t_bool"
      },
      "t_mapping(t_address,t_mapping(t_address,t_bool))": {
        "encoding": "mapping",
        "key": "t_address",
        "label": "mapping(address => mapping(address => bool))",
        "numberOfBytes": "32",
        "value": "t_mapping(t_address,t_bool)"
      },
      "t_mapping(t_address,t_uint256)": {
        "encoding": "mapping",
        "key": "t_address",
        "label": "mapping(address => uint256)",
        "numberOfBytes": "32",
        "value": "t_uint256"
      },
      "t_mapping(t_bytes32,t_struct(RoleData)19_storage)": {
        "encoding": "mapping",
        "key": "t_bytes32",
        "label": "mapping(bytes32 => struct AccessControl.RoleData)",
        "numberOfBytes": "32",
        "value": "t_struct(RoleData)19_storage"
      },
      "t_mapping(t_uint256,t_mapping(t_address,t_uint256))": {
        "encoding": "mapping",
        "key": "t_uint256",
        "label": "mapping(uint256 => mapping(address => uint256))",
        "numberOfBytes": "32",
        "value": "t_mapping(t_address,t_uint256)"
      },
      "t_string_storage": {
        "encoding": "bytes",
        "label": "string",
        "numberOfBytes": "32"
      },
      "t_struct(RoleData)19_storage": {
        "encoding": "inplace",
        "label": "struct AccessControl.RoleData",
        "members": [
          {
            "astId": 16,
            "contract": "src/infomon/InfomonERC1155.sol:InfomonERC1155",
            "label": "members",
            "offset": 0,
            "slot": "0",
            "type": "t_mapping(t_address,t_bool)"
          },
          {
            "astId": 18,
            "contract": "src/infomon/InfomonERC1155.sol:InfomonERC1155",
            "label": "adminRole",
            "offset": 0,
            "slot": "1",
            "type": "t_bytes32"
          }
        ],
        "numberOfBytes": "64"
      },
      "t_uint256": {
        "encoding": "inplace",
        "label": "uint256",
        "numberOfBytes": "32"
      }
    }
  }
}