{
  "address": "0xafDE38395fb5dC969f7866298cc6451395312a19",
  "abi": [
    {
      "inputs": [
        {
          "internalType": "string",
          "name": "name",
          "type": "string"
        },
        {
          "internalType": "string",
          "name": "symbol",
          "type": "string"
        },
        {
          "internalType": "string",
          "name": "baseTokenURI",
          "type": "string"
        }
      ],
      "stateMutability": "nonpayable",
      "type": "constructor"
    },
    {
      "anonymous": false,
      "inputs": [
        {
          "indexed": true,
          "internalType": "address",
          "name": "owner",
          "type": "address"
        },
        {
          "indexed": true,
          "internalType": "address",
          "name": "approved",
          "type": "address"
        },
        {
          "indexed": true,
          "internalType": "uint256",
          "name": "tokenId",
          "type": "uint256"
        }
      ],
      "name": "Approval",
      "type": "event"
    },
    {
      "anonymous": false,
      "inputs": [
        {
          "indexed": true,
          "internalType": "address",
          "name": "owner",
          "type": "address"
        },
        {
          "indexed": true,
          "internalType": "address",
          "name": "operator",
          "type": "address"
        },
        {
          "indexed": false,
          "internalType": "bool",
          "name": "approved",
          "type": "bool"
        }
      ],
      "name": "ApprovalForAll",
      "type": "event"
    },
    {
      "anonymous": false,
      "inputs": [
        {
          "indexed": true,
          "internalType": "address",
          "name": "to",
          "type": "address"
        },
        {
          "indexed": false,
          "internalType": "uint256",
          "name": "tokenId",
          "type": "uint256"
        }
      ],
      "name": "MintToClaimerCalled",
      "type": "event"
    },
    {
      "anonymous": false,
      "inputs": [
        {
          "indexed": true,
          "internalType": "uint256",
          "name": "_tokenId",
          "type": "uint256"
        },
        {
          "indexed": true,
          "internalType": "uint256",
          "name": "_nonce",
          "type": "uint256"
        }
      ],
      "name": "NonceUpdated",
      "type": "event"
    },
    {
      "anonymous": false,
      "inputs": [
        {
          "indexed": false,
          "internalType": "address",
          "name": "account",
          "type": "address"
        }
      ],
      "name": "Paused",
      "type": "event"
    },
    {
      "anonymous": false,
      "inputs": [
        {
          "indexed": true,
          "internalType": "bytes32",
          "name": "role",
          "type": "bytes32"
        },
        {
          "indexed": true,
          "internalType": "bytes32",
          "name": "previousAdminRole",
          "type": "bytes32"
        },
        {
          "indexed": true,
          "internalType": "bytes32",
          "name": "newAdminRole",
          "type": "bytes32"
        }
      ],
      "name": "RoleAdminChanged",
      "type": "event"
    },
    {
      "anonymous": false,
      "inputs": [
        {
          "indexed": true,
          "internalType": "bytes32",
          "name": "role",
          "type": "bytes32"
        },
        {
          "indexed": true,
          "internalType": "address",
          "name": "account",
          "type": "address"
        },
        {
          "indexed": true,
          "internalType": "address",
          "name": "sender",
          "type": "address"
        }
      ],
      "name": "RoleGranted",
      "type": "event"
    },
    {
      "anonymous": false,
      "inputs": [
        {
          "indexed": true,
          "internalType": "bytes32",
          "name": "role",
          "type": "bytes32"
        },
        {
          "indexed": true,
          "internalType": "address",
          "name": "account",
          "type": "address"
        },
        {
          "indexed": true,
          "internalType": "address",
          "name": "sender",
          "type": "address"
        }
      ],
      "name": "RoleRevoked",
      "type": "event"
    },
    {
      "anonymous": false,
      "inputs": [
        {
          "indexed": true,
          "internalType": "address",
          "name": "from",
          "type": "address"
        },
        {
          "indexed": true,
          "internalType": "address",
          "name": "to",
          "type": "address"
        },
        {
          "indexed": true,
          "internalType": "uint256",
          "name": "tokenId",
          "type": "uint256"
        }
      ],
      "name": "Transfer",
      "type": "event"
    },
    {
      "anonymous": false,
      "inputs": [
        {
          "indexed": false,
          "internalType": "address",
          "name": "account",
          "type": "address"
        }
      ],
      "name": "Unpaused",
      "type": "event"
    },
    {
      "inputs": [],
      "name": "DEFAULT_ADMIN_ROLE",
      "outputs": [
        {
          "internalType": "bytes32",
          "name": "",
          "type": "bytes32"
        }
      ],
      "stateMutability": "view",
      "type": "function"
    },
    {
      "inputs": [],
      "name": "MINTER_ROLE",
      "outputs": [
        {
          "internalType": "bytes32",
          "name": "",
          "type": "bytes32"
        }
      ],
      "stateMutability": "view",
      "type": "function"
    },
    {
      "inputs": [],
      "name": "PAUSER_ROLE",
      "outputs": [
        {
          "internalType": "bytes32",
          "name": "",
          "type": "bytes32"
        }
      ],
      "stateMutability": "view",
      "type": "function"
    },
    {
      "inputs": [
        {
          "internalType": "address",
          "name": "to",
          "type": "address"
        },
        {
          "internalType": "uint256",
          "name": "tokenId",
          "type": "uint256"
        }
      ],
      "name": "approve",
      "outputs": [],
      "stateMutability": "nonpayable",
      "type": "function"
    },
    {
      "inputs": [
        {
          "internalType": "address",
          "name": "owner",
          "type": "address"
        }
      ],
      "name": "balanceOf",
      "outputs": [
        {
          "internalType": "uint256",
          "name": "",
          "type": "uint256"
        }
      ],
      "stateMutability": "view",
      "type": "function"
    },
    {
      "inputs": [
        {
          "internalType": "address[]",
          "name": "_recipients",
          "type": "address[]"
        }
      ],
      "name": "bulkMint",
      "outputs": [
        {
          "internalType": "uint256[]",
          "name": "_tokenIds",
          "type": "uint256[]"
        }
      ],
      "stateMutability": "nonpayable",
      "type": "function"
    },
    {
      "inputs": [
        {
          "internalType": "uint256",
          "name": "tokenId",
          "type": "uint256"
        }
      ],
      "name": "burn",
      "outputs": [],
      "stateMutability": "nonpayable",
      "type": "function"
    },
    {
      "inputs": [
        {
          "internalType": "uint256",
          "name": "tokenId",
          "type": "uint256"
        }
      ],
      "name": "getApproved",
      "outputs": [
        {
          "internalType": "address",
          "name": "",
          "type": "address"
        }
      ],
      "stateMutability": "view",
      "type": "function"
    },
    {
      "inputs": [
        {
          "internalType": "bytes32",
          "name": "role",
          "type": "bytes32"
        }
      ],
      "name": "getRoleAdmin",
      "outputs": [
        {
          "internalType": "bytes32",
          "name": "",
          "type": "bytes32"
        }
      ],
      "stateMutability": "view",
      "type": "function"
    },
    {
      "inputs": [
        {
          "internalType": "bytes32",
          "name": "role",
          "type": "bytes32"
        },
        {
          "internalType": "uint256",
          "name": "index",
          "type": "uint256"
        }
      ],
      "name": "getRoleMember",
      "outputs": [
        {
          "internalType": "address",
          "name": "",
          "type": "address"
        }
      ],
      "stateMutability": "view",
      "type": "function"
    },
    {
      "inputs": [
        {
          "internalType": "bytes32",
          "name": "role",
          "type": "bytes32"
        }
      ],
      "name": "getRoleMemberCount",
      "outputs": [
        {
          "internalType": "uint256",
          "name": "",
          "type": "uint256"
        }
      ],
      "stateMutability": "view",
      "type": "function"
    },
    {
      "inputs": [
        {
          "internalType": "bytes32",
          "name": "role",
          "type": "bytes32"
        },
        {
          "internalType": "address",
          "name": "account",
          "type": "address"
        }
      ],
      "name": "grantRole",
      "outputs": [],
      "stateMutability": "nonpayable",
      "type": "function"
    },
    {
      "inputs": [
        {
          "internalType": "bytes32",
          "name": "role",
          "type": "bytes32"
        },
        {
          "internalType": "address",
          "name": "account",
          "type": "address"
        }
      ],
      "name": "hasRole",
      "outputs": [
        {
          "internalType": "bool",
          "name": "",
          "type": "bool"
        }
      ],
      "stateMutability": "view",
      "type": "function"
    },
    {
      "inputs": [
        {
          "internalType": "address",
          "name": "owner",
          "type": "address"
        },
        {
          "internalType": "address",
          "name": "operator",
          "type": "address"
        }
      ],
      "name": "isApprovedForAll",
      "outputs": [
        {
          "internalType": "bool",
          "name": "",
          "type": "bool"
        }
      ],
      "stateMutability": "view",
      "type": "function"
    },
    {
      "inputs": [
        {
          "internalType": "address",
          "name": "to",
          "type": "address"
        }
      ],
      "name": "mint",
      "outputs": [
        {
          "internalType": "uint256",
          "name": "_tokenId",
          "type": "uint256"
        }
      ],
      "stateMutability": "nonpayable",
      "type": "function"
    },
    {
      "inputs": [],
      "name": "name",
      "outputs": [
        {
          "internalType": "string",
          "name": "",
          "type": "string"
        }
      ],
      "stateMutability": "view",
      "type": "function"
    },
    {
      "inputs": [
        {
          "internalType": "uint256",
          "name": "",
          "type": "uint256"
        }
      ],
      "name": "nonces",
      "outputs": [
        {
          "internalType": "uint256",
          "name": "",
          "type": "uint256"
        }
      ],
      "stateMutability": "view",
      "type": "function"
    },
    {
      "inputs": [
        {
          "internalType": "uint256",
          "name": "tokenId",
          "type": "uint256"
        }
      ],
      "name": "ownerOf",
      "outputs": [
        {
          "internalType": "address",
          "name": "",
          "type": "address"
        }
      ],
      "stateMutability": "view",
      "type": "function"
    },
    {
      "inputs": [],
      "name": "pause",
      "outputs": [],
      "stateMutability": "nonpayable",
      "type": "function"
    },
    {
      "inputs": [],
      "name": "paused",
      "outputs": [
        {
          "internalType": "bool",
          "name": "",
          "type": "bool"
        }
      ],
      "stateMutability": "view",
      "type": "function"
    },
    {
      "inputs": [
        {
          "internalType": "bytes32",
          "name": "role",
          "type": "bytes32"
        },
        {
          "internalType": "address",
          "name": "account",
          "type": "address"
        }
      ],
      "name": "renounceRole",
      "outputs": [],
      "stateMutability": "nonpayable",
      "type": "function"
    },
    {
      "inputs": [
        {
          "internalType": "bytes32",
          "name": "role",
          "type": "bytes32"
        },
        {
          "internalType": "address",
          "name": "account",
          "type": "address"
        }
      ],
      "name": "revokeRole",
      "outputs": [],
      "stateMutability": "nonpayable",
      "type": "function"
    },
    {
      "inputs": [
        {
          "internalType": "address",
          "name": "from",
          "type": "address"
        },
        {
          "internalType": "address",
          "name": "to",
          "type": "address"
        },
        {
          "internalType": "uint256",
          "name": "tokenId",
          "type": "uint256"
        }
      ],
      "name": "safeTransferFrom",
      "outputs": [],
      "stateMutability": "nonpayable",
      "type": "function"
    },
    {
      "inputs": [
        {
          "internalType": "address",
          "name": "from",
          "type": "address"
        },
        {
          "internalType": "address",
          "name": "to",
          "type": "address"
        },
        {
          "internalType": "uint256",
          "name": "tokenId",
          "type": "uint256"
        },
        {
          "internalType": "bytes",
          "name": "data",
          "type": "bytes"
        }
      ],
      "name": "safeTransferFrom",
      "outputs": [],
      "stateMutability": "nonpayable",
      "type": "function"
    },
    {
      "inputs": [
        {
          "internalType": "address",
          "name": "operator",
          "type": "address"
        },
        {
          "internalType": "bool",
          "name": "approved",
          "type": "bool"
        }
      ],
      "name": "setApprovalForAll",
      "outputs": [],
      "stateMutability": "nonpayable",
      "type": "function"
    },
    {
      "inputs": [
        {
          "internalType": "string",
          "name": "baseTokenURI",
          "type": "string"
        }
      ],
      "name": "setBaseURI",
      "outputs": [],
      "stateMutability": "nonpayable",
      "type": "function"
    },
    {
      "inputs": [
        {
          "internalType": "uint256",
          "name": "_tokenId",
          "type": "uint256"
        }
      ],
      "name": "stateOf",
      "outputs": [
        {
          "internalType": "bytes",
          "name": "",
          "type": "bytes"
        }
      ],
      "stateMutability": "view",
      "type": "function"
    },
    {
      "inputs": [
        {
          "internalType": "bytes4",
          "name": "interfaceId",
          "type": "bytes4"
        }
      ],
      "name": "supportsInterface",
      "outputs": [
        {
          "internalType": "bool",
          "name": "",
          "type": "bool"
        }
      ],
      "stateMutability": "view",
      "type": "function"
    },
    {
      "inputs": [],
      "name": "symbol",
      "outputs": [
        {
          "internalType": "string",
          "name": "",
          "type": "string"
        }
      ],
      "stateMutability": "view",
      "type": "function"
    },
    {
      "inputs": [
        {
          "internalType": "uint256",
          "name": "index",
          "type": "uint256"
        }
      ],
      "name": "tokenByIndex",
      "outputs": [
        {
          "internalType": "uint256",
          "name": "",
          "type": "uint256"
        }
      ],
      "stateMutability": "view",
      "type": "function"
    },
    {
      "inputs": [
        {
          "internalType": "address",
          "name": "owner",
          "type": "address"
        },
        {
          "internalType": "uint256",
          "name": "index",
          "type": "uint256"
        }
      ],
      "name": "tokenOfOwnerByIndex",
      "outputs": [
        {
          "internalType": "uint256",
          "name": "",
          "type": "uint256"
        }
      ],
      "stateMutability": "view",
      "type": "function"
    },
    {
      "inputs": [
        {
          "internalType": "uint256",
          "name": "tokenId",
          "type": "uint256"
        }
      ],
      "name": "tokenURI",
      "outputs": [
        {
          "internalType": "string",
          "name": "",
          "type": "string"
        }
      ],
      "stateMutability": "view",
      "type": "function"
    },
    {
      "inputs": [],
      "name": "totalSupply",
      "outputs": [
        {
          "internalType": "uint256",
          "name": "",
          "type": "uint256"
        }
      ],
      "stateMutability": "view",
      "type": "function"
    },
    {
      "inputs": [
        {
          "internalType": "address",
          "name": "from",
          "type": "address"
        },
        {
          "internalType": "address",
          "name": "to",
          "type": "address"
        },
        {
          "internalType": "uint256",
          "name": "tokenId",
          "type": "uint256"
        }
      ],
      "name": "transferFrom",
      "outputs": [],
      "stateMutability": "nonpayable",
      "type": "function"
    },
    {
      "inputs": [],
      "name": "unpause",
      "outputs": [],
      "stateMutability": "nonpayable",
      "type": "function"
    }
  ],
  "transactionHash": "0x8fcaf9c37e143dfb61c065ef4f29b66af187e61c5b8ab6b3fbd88718ec6e1b9d",
  "args": [
    "Infomon",
    "INFO",
    "https://infomonpublicresource.blob.core.windows.net/pet-public/metadata-test/"
  ],
  "numDeployments": 2,
  "solcInputHash": "0ba4862e3bc7d15e4bba15d25a3d8de3",
  "bytecode": "0x608060405234801561001057600080fd5b50604051612ffc380380612ffc83398101604081905261002f916102de565b8282828282828282600261004383826103fb565b50600361005082826103fb565b5050603f805460ff1916905550604161006982826103fb565b506100756000336100e5565b61009f7f9f2df0fed2c77648de5860a4cc508cd0818c85b8b8a1ab4ceeef8d981c8956a6336100e5565b6100c97f65d7a28e3265b37a6474929f336521b332c1681b933f6cb9f3376673440d862a336100e5565b6100d7604080546001019055565b5050505050505050506104b9565b6100ef82826100f3565b5050565b6100fd828261011a565b600082815260016020526040902061011590826101b8565b505050565b6000828152602081815260408083206001600160a01b038516845290915290205460ff166100ef576000828152602081815260408083206001600160a01b03851684529091529020805460ff191660011790556101743390565b6001600160a01b0316816001600160a01b0316837f2f8788117e7eff1d82e926ec794901d17c78024a50270940304540a733656f0d60405160405180910390a45050565b60006101cd836001600160a01b0384166101d6565b90505b92915050565b600081815260018301602052604081205461021d575081546001818101845560008481526020808220909301849055845484825282860190935260409020919091556101d0565b5060006101d0565b634e487b7160e01b600052604160045260246000fd5b600082601f83011261024c57600080fd5b81516001600160401b0381111561026557610265610225565b604051601f8201601f19908116603f011681016001600160401b038111828210171561029357610293610225565b6040528181528382016020018510156102ab57600080fd5b60005b828110156102ca576020818601810151838301820152016102ae565b506000918101602001919091529392505050565b6000806000606084860312156102f357600080fd5b83516001600160401b0381111561030957600080fd5b6103158682870161023b565b602086015190945090506001600160401b0381111561033357600080fd5b61033f8682870161023b565b604086015190935090506001600160401b0381111561035d57600080fd5b6103698682870161023b565b9150509250925092565b600181811c9082168061038757607f821691505b6020821081036103a757634e487b7160e01b600052602260045260246000fd5b50919050565b601f82111561011557806000526020600020601f840160051c810160208510156103d45750805b601f840160051c820191505b818110156103f457600081556001016103e0565b5050505050565b81516001600160401b0381111561041457610414610225565b610428816104228454610373565b846103ad565b6020601f82116001811461045c57600083156104445750848201515b600019600385901b1c1916600184901b1784556103f4565b600084815260208120601f198516915b8281101561048c578785015182556020948501946001909201910161046c565b50848210156104aa5786840151600019600387901b60f8161c191681555b50505050600190811b01905550565b612b34806104c86000396000f3fe608060405234801561001057600080fd5b50600436106102115760003560e01c806355f804b311610125578063a217fddf116100ad578063ca15c8731161007c578063ca15c8731461047a578063d53913931461048d578063d547741f146104b4578063e63ab1e9146104c7578063e985e9c5146104ee57600080fd5b8063a217fddf14610439578063a22cb46514610441578063b88d4fde14610454578063c87b56dd1461046757600080fd5b806370a08231116100f457806370a08231146103f05780638456cb59146104035780639010d07c1461040b57806391d148541461041e57806395d89b411461043157600080fd5b806355f804b3146103ac5780635c975abb146103bf5780636352211e146103ca5780636a627842146103dd57600080fd5b8063248a9ca3116101a85780633771aaa1116101775780633771aaa11461034b5780633f4ba83a1461036b57806342842e0e1461037357806342966c68146103865780634f6ccce71461039957600080fd5b8063248a9ca3146102ef5780632f2ff15d146103125780632f745c591461032557806336568abe1461033857600080fd5b8063131a7e24116101e4578063131a7e2414610293578063141a468c146102a657806318160ddd146102d457806323b872dd146102dc57600080fd5b806301ffc9a71461021657806306fdde031461023e578063081812fc14610253578063095ea7b31461027e575b600080fd5b610229610224366004612338565b61052a565b60405190151581526020015b60405180910390f35b610246610570565b60405161023591906123a5565b6102666102613660046123b8565b610602565b6040516001600160a01b039091168152602001610235565b61029161028c3660046123e8565b610629565b005b6102466102a13660046123b8565b610743565b6102c66102b43660046123b8565b60086020526000908152604090205481565b604051908152602001610235565b603d546102c6565b6102916102ea366004612412565b610819565b6102c66102fd3660046123b8565b60009081526020819052604090206001015490565b61029161032036600461244f565b61084b565b6102c66103333660046123e8565b610870565b61029161034636600461244f565b610906565b61035e61035936600461247b565b610984565b60405161023591906124f2565b610291610ab5565b610291610381366004612412565b610b5d565b6102916103943660046123b8565b610b78565b6102c66103a73660046123b8565b610ba9565b6102916103ba3660046125c5565b610c3c565b603f5460ff16610229565b6102666103d83660046123b8565b610c53565b6102c66103eb36600461260e565b610cb3565b6102c66103fe36600461260e565b610d5a565b610291610de0565b610266610419366004612629565b610e84565b61022961042c36600461244f565b610ea3565b610246610ecc565b6102c6600081565b61029161044f36600461264b565b610edb565b610291610462366004612687565b610ee6565b6102466104753660046123b8565b610f1e565b6102c66104883660046123b8565b610f84565b6102c67f9f2df0fed2c77648de5860a4cc508cd0818c85b8b8a1ab4ceeef8d981c8956a681565b6102916104c236600461244f565b610f9b565b6102c67f65d7a28e3265b37a6474929f336521b332c1681b933f6cb9f3376673440d862a81565b6102296104fc366004612703565b6001600160a01b03918216600090815260076020908152604080832093909416825291909152205460ff1690565b60006001600160e01b03198216633771aaa160e01b148061055b57506001600160e01b031982166304c69f8960e21b145b8061056a575061056a82610fc0565b92915050565b60606002805461057f9061272d565b80601f01602080910402602001604051908101604052809291908181526020018280546105ab9061272d565b80156105f85780601f106105cd576101008083540402835291602001916105f8565b820191906000526020600020905b8154815290600101906020018083116105db57829003601f168201915b5050505050905090565b600061060d82610fe5565b506000908152600660205260409020546001600160a01b031690565b600061063482610c53565b9050806001600160a01b0316836001600160a01b0316036106a65760405162461bcd60e51b815260206004820152602160248201527f4552433732313a20617070726f76616c20746f2063757272656e74206f776e656044820152603960f91b60648201526084015b60405180910390fd5b336001600160a01b03821614806106c257506106c281336104fc565b6107345760405162461bcd60e51b815260206004820152603d60248201527f4552433732313a20617070726f76652063616c6c6572206973206e6f7420746f60448201527f6b656e206f776e6572206f7220617070726f76656420666f7220616c6c000000606482015260840161069d565b61073e8383611044565b505050565b6000818152600460205260409020546060906001600160a01b03166107bd5760405162461bcd60e51b815260206004820152602a60248201527f455243373231436f6d6d6f6e3a20717565727920666f72206e6f6e2d657869736044820152693a32b73a103a37b5b2b760b11b606482015260840161069d565b6107c682610c53565b60008381526008602090815260409182902054915160609390931b6bffffffffffffffffffffffff1916908301526034820152605481018390526074016040516020818303038152906040529050919050565b610824335b826110b2565b6108405760405162461bcd60e51b815260040161069d90612767565b61073e838383611131565b600082815260208190526040902060010154610866816112a2565b61073e83836112ac565b600061087b83610d5a565b82106108dd5760405162461bcd60e51b815260206004820152602b60248201527f455243373231456e756d657261626c653a206f776e657220696e646578206f7560448201526a74206f6620626f756e647360a81b606482015260840161069d565b506001600160a01b03919091166000908152603b60209081526040808320938352929052205490565b6001600160a01b03811633146109765760405162461bcd60e51b815260206004820152602f60248201527f416363657373436f6e74726f6c3a2063616e206f6e6c792072656e6f756e636560448201526e103937b632b9903337b91039b2b63360891b606482015260840161069d565b61098082826112ce565b5050565b60607f9f2df0fed2c77648de5860a4cc508cd0818c85b8b8a1ab4ceeef8d981c8956a66109b0816112a2565b82610a095760405162461bcd60e51b815260206004820152602360248201527f455243373231436f6d6d6f6e3a20696e76616c6964206172726179206c656e6760448201526274687360e81b606482015260840161069d565b8267ffffffffffffffff811115610a2257610a22612535565b604051908082528060200260200182016040528015610a4b578160200160208202803683370190505b50915060005b83811015610aad57610a88858583818110610a6e57610a6e6127b4565b9050602002016020810190610a83919061260e565b6112f0565b838281518110610a9a57610a9a6127b4565b6020908102919091010152600101610a51565b505092915050565b610adf7f65d7a28e3265b37a6474929f336521b332c1681b933f6cb9f3376673440d862a33610ea3565b610b53576040805162461bcd60e51b81526020600482015260248101919091527f4552433732315072657365744d696e7465725061757365724175746f49643a2060448201527f6d75737420686176652070617573657220726f6c6520746f20756e7061757365606482015260840161069d565b610b5b61131a565b565b61073e83838360405180602001604052806000815250610ee6565b610b813361081e565b610b9d5760405162461bcd60e51b815260040161069d90612767565b610ba68161136c565b50565b6000610bb4603d5490565b8210610c175760405162461bcd60e51b815260206004820152602c60248201527f455243373231456e756d657261626c653a20676c6f62616c20696e646578206f60448201526b7574206f6620626f756e647360a01b606482015260840161069d565b603d8281548110610c2a57610c2a6127b4565b90600052602060002001549050919050565b6000610c47816112a2565b604161073e8382612811565b6000818152600460205260408120546001600160a01b03168061056a5760405162461bcd60e51b8152602060048201526018602482015277115490cdcc8c4e881a5b9d985b1a59081d1bdad95b88125160421b604482015260640161069d565b6000610cdf7f9f2df0fed2c77648de5860a4cc508cd0818c85b8b8a1ab4ceeef8d981c8956a633610ea3565b610d515760405162461bcd60e51b815260206004820152603d60248201527f4552433732315072657365744d696e7465725061757365724175746f49643a2060448201527f6d7573742068617665206d696e74657220726f6c6520746f206d696e74000000606482015260840161069d565b61056a826112f0565b60006001600160a01b038216610dc45760405162461bcd60e51b815260206004820152602960248201527f4552433732313a2061646472657373207a65726f206973206e6f7420612076616044820152683634b21037bbb732b960b91b606482015260840161069d565b506001600160a01b031660009081526005602052604090205490565b610e0a7f65d7a28e3265b37a6474929f336521b332c1681b933f6cb9f3376673440d862a33610ea3565b610e7c5760405162461bcd60e51b815260206004820152603e60248201527f4552433732315072657365744d696e7465725061757365724175746f49643a2060448201527f6d75737420686176652070617573657220726f6c6520746f2070617573650000606482015260840161069d565b610b5b61140f565b6000828152600160205260408120610e9c908361144c565b9392505050565b6000918252602082815260408084206001600160a01b0393909316845291905290205460ff1690565b60606003805461057f9061272d565b610980338383611458565b610ef033836110b2565b610f0c5760405162461bcd60e51b815260040161069d90612767565b610f1884848484611526565b50505050565b6060610f2982610fe5565b6000610f33611559565b90506000815111610f535760405180602001604052806000815250610e9c565b80610f5d84611568565b604051602001610f6e9291906128d0565b6040516020818303038152906040529392505050565b600081815260016020526040812061056a906115fb565b600082815260208190526040902060010154610fb6816112a2565b61073e83836112ce565b60006001600160e01b0319821663d17f1b2160e01b148061056a575061056a82611605565b6000818152600460205260409020546001600160a01b0316610ba65760405162461bcd60e51b8152602060048201526018602482015277115490cdcc8c4e881a5b9d985b1a59081d1bdad95b88125160421b604482015260640161069d565b600081815260066020526040902080546001600160a01b0319166001600160a01b038416908117909155819061107982610c53565b6001600160a01b03167f8c5be1e5ebec7d5bd14f71427d1e84f3dd0314c0f7b2291e5b200ac8c7c3b92560405160405180910390a45050565b6000806110be83610c53565b9050806001600160a01b0316846001600160a01b0316148061110557506001600160a01b0380821660009081526007602090815260408083209388168352929052205460ff165b806111295750836001600160a01b031661111e84610602565b6001600160a01b0316145b949350505050565b826001600160a01b031661114482610c53565b6001600160a01b03161461116a5760405162461bcd60e51b815260040161069d906128ff565b6001600160a01b0382166111cc5760405162461bcd60e51b8152602060048201526024808201527f4552433732313a207472616e7366657220746f20746865207a65726f206164646044820152637265737360e01b606482015260840161069d565b6111d9838383600161162a565b826001600160a01b03166111ec82610c53565b6001600160a01b0316146112125760405162461bcd60e51b815260040161069d906128ff565b600081815260066020908152604080832080546001600160a01b03199081169091556001600160a01b0387811680865260058552838620805460001901905590871680865283862080546001019055868652600490945282852080549092168417909155905184937fddf252ad1be2c89b69c2b068fc378daa952ba7f163c4a11628f55a4df523b3ef91a4505050565b610ba68133611636565b6112b6828261168f565b600082815260016020526040902061073e9082611713565b6112d88282611728565b600082815260016020526040902061073e908261178d565b60006112fb60405490565b905061130782826117a2565b611315604080546001019055565b919050565b61132261193b565b603f805460ff191690557f5db9ee0a495bf2e6ff9c91a7834c1ba4fdd244a5e8aa4e537bd38aeae4b073aa335b6040516001600160a01b03909116815260200160405180910390a1565b600061137782610c53565b905061138781600084600161162a565b61139082610c53565b600083815260066020908152604080832080546001600160a01b03199081169091556001600160a01b0385168085526005845282852080546000190190558785526004909352818420805490911690555192935084927fddf252ad1be2c89b69c2b068fc378daa952ba7f163c4a11628f55a4df523b3ef908390a45050565b611417611984565b603f805460ff191660011790557f62e78cea01bee320cd4e420270b5ea74000d11b0c9f74754ebdbfc544b05a25861134f3390565b6000610e9c83836119ca565b816001600160a01b0316836001600160a01b0316036114b95760405162461bcd60e51b815260206004820152601960248201527f4552433732313a20617070726f766520746f2063616c6c657200000000000000604482015260640161069d565b6001600160a01b03838116600081815260076020908152604080832094871680845294825291829020805460ff191686151590811790915591519182527f17307eab39ab6107e8899845ad3d59bd9653f200f220920489ca2b5937696c31910160405180910390a3505050565b611531848484611131565b61153d848484846119f4565b610f185760405162461bcd60e51b815260040161069d90612944565b6060611563611af5565b905090565b6060600061157583611b04565b600101905060008167ffffffffffffffff81111561159557611595612535565b6040519080825280601f01601f1916602001820160405280156115bf576020820181803683370190505b5090508181016020015b600019016f181899199a1a9b1b9c1cb0b131b232b360811b600a86061a8153600a85049450846115c957509392505050565b600061056a825490565b60006001600160e01b0319821663780e9d6360e01b148061056a575061056a82611bdc565b610f1884848484611c1c565b6116408282610ea3565b6109805761164d81611c28565b611658836020611c3a565b604051602001611669929190612996565b60408051601f198184030181529082905262461bcd60e51b825261069d916004016123a5565b6116998282610ea3565b610980576000828152602081815260408083206001600160a01b03851684529091529020805460ff191660011790556116cf3390565b6001600160a01b0316816001600160a01b0316837f2f8788117e7eff1d82e926ec794901d17c78024a50270940304540a733656f0d60405160405180910390a45050565b6000610e9c836001600160a01b038416611dd6565b6117328282610ea3565b15610980576000828152602081815260408083206001600160a01b0385168085529252808320805460ff1916905551339285917ff6391f5c32d9c69d2a47ea670b442974b53935d1edc7fd64eb21e047a839171b9190a45050565b6000610e9c836001600160a01b038416611e25565b6001600160a01b0382166117f85760405162461bcd60e51b815260206004820181905260248201527f4552433732313a206d696e7420746f20746865207a65726f2061646472657373604482015260640161069d565b6000818152600460205260409020546001600160a01b03161561185d5760405162461bcd60e51b815260206004820152601c60248201527f4552433732313a20746f6b656e20616c7265616479206d696e74656400000000604482015260640161069d565b61186b60008383600161162a565b6000818152600460205260409020546001600160a01b0316156118d05760405162461bcd60e51b815260206004820152601c60248201527f4552433732313a20746f6b656e20616c7265616479206d696e74656400000000604482015260640161069d565b6001600160a01b038216600081815260056020908152604080832080546001019055848352600490915280822080546001600160a01b0319168417905551839291907fddf252ad1be2c89b69c2b068fc378daa952ba7f163c4a11628f55a4df523b3ef908290a45050565b603f5460ff16610b5b5760405162461bcd60e51b815260206004820152601460248201527314185d5cd8589b194e881b9bdd081c185d5cd95960621b604482015260640161069d565b603f5460ff1615610b5b5760405162461bcd60e51b815260206004820152601060248201526f14185d5cd8589b194e881c185d5cd95960821b604482015260640161069d565b60008260000182815481106119e1576119e16127b4565b9060005260206000200154905092915050565b60006001600160a01b0384163b15611aea57604051630a85bd0160e11b81526001600160a01b0385169063150b7a0290611a38903390899088908890600401612a0b565b6020604051808303816000875af1925050508015611a73575060408051601f3d908101601f19168201909252611a7091810190612a48565b60015b611ad0573d808015611aa1576040519150601f19603f3d011682016040523d82523d6000602084013e611aa6565b606091505b508051600003611ac85760405162461bcd60e51b815260040161069d90612944565b805181602001fd5b6001600160e01b031916630a85bd0160e11b149050611129565b506001949350505050565b60606041805461057f9061272d565b60008072184f03e93ff9f4daa797ed6e38ed64bf6a1f0160401b8310611b435772184f03e93ff9f4daa797ed6e38ed64bf6a1f0160401b830492506040015b6d04ee2d6d415b85acef81000000008310611b6f576d04ee2d6d415b85acef8100000000830492506020015b662386f26fc100008310611b8d57662386f26fc10000830492506010015b6305f5e1008310611ba5576305f5e100830492506008015b6127108310611bb957612710830492506004015b60648310611bcb576064830492506002015b600a831061056a5760010192915050565b60006001600160e01b031982166380ac58cd60e01b1480611c0d57506001600160e01b03198216635b5e139f60e01b145b8061056a575061056a82611f18565b610f1884848484611f3d565b606061056a6001600160a01b03831660145b60606000611c49836002612a7b565b611c54906002612a92565b67ffffffffffffffff811115611c6c57611c6c612535565b6040519080825280601f01601f191660200182016040528015611c96576020820181803683370190505b509050600360fc1b81600081518110611cb157611cb16127b4565b60200101906001600160f81b031916908160001a905350600f60fb1b81600181518110611ce057611ce06127b4565b60200101906001600160f81b031916908160001a9053506000611d04846002612a7b565b611d0f906001612a92565b90505b6001811115611d87576f181899199a1a9b1b9c1cb0b131b232b360811b85600f1660108110611d4357611d436127b4565b1a60f81b828281518110611d5957611d596127b4565b60200101906001600160f81b031916908160001a90535060049490941c93611d8081612aa5565b9050611d12565b508315610e9c5760405162461bcd60e51b815260206004820181905260248201527f537472696e67733a20686578206c656e67746820696e73756666696369656e74604482015260640161069d565b6000818152600183016020526040812054611e1d5750815460018181018455600084815260208082209093018490558454848252828601909352604090209190915561056a565b50600061056a565b60008181526001830160205260408120548015611f0e576000611e49600183612abc565b8554909150600090611e5d90600190612abc565b9050818114611ec2576000866000018281548110611e7d57611e7d6127b4565b9060005260206000200154905080876000018481548110611ea057611ea06127b4565b6000918252602080832090910192909255918252600188019052604090208390555b8554869080611ed357611ed3612acf565b60019003818190600052602060002001600090559055856001016000868152602001908152602001600020600090556001935050505061056a565b600091505061056a565b60006001600160e01b03198216635a05180f60e01b148061056a575061056a82611fb0565b611f4984848484611fe5565b603f5460ff1615610f185760405162461bcd60e51b815260206004820152602b60248201527f4552433732315061757361626c653a20746f6b656e207472616e73666572207760448201526a1a1a5b19481c185d5cd95960aa1b606482015260840161069d565b60006001600160e01b03198216637965db0b60e01b148061056a57506301ffc9a760e01b6001600160e01b031983161461056a565b611ff184848484612125565b60018111156120605760405162461bcd60e51b815260206004820152603560248201527f455243373231456e756d657261626c653a20636f6e7365637574697665207472604482015274185b9cd9995c9cc81b9bdd081cdd5c1c1bdc9d1959605a1b606482015260840161069d565b816001600160a01b0385166120bc576120b781603d80546000838152603e60205260408120829055600182018355919091527fece66cfdbd22e3f37d348a3d8e19074452862cd65fd4b9a11f0336d1ac6d1dc30155565b6120df565b836001600160a01b0316856001600160a01b0316146120df576120df8582612192565b6001600160a01b0384166120fb576120f68161222f565b61211e565b846001600160a01b0316846001600160a01b03161461211e5761211e84826122de565b5050505050565b815b6121318284612a92565b81101561218c576000818152600860205260408120805490919061215490612ae5565b918290555060405182907fcc2c68164f9f7f0c063ba98bcf89498c0f3f5e3acc32bf4ab46195ecb489c13b90600090a3600101612127565b50610f18565b6000600161219f84610d5a565b6121a99190612abc565b6000838152603c60205260409020549091508082146121fc576001600160a01b0384166000908152603b602090815260408083208584528252808320548484528184208190558352603c90915290208190555b506000918252603c602090815260408084208490556001600160a01b039094168352603b81528383209183525290812055565b603d5460009061224190600190612abc565b6000838152603e6020526040812054603d8054939450909284908110612269576122696127b4565b9060005260206000200154905080603d838154811061228a5761228a6127b4565b6000918252602080832090910192909255828152603e9091526040808220849055858252812055603d8054806122c2576122c2612acf565b6001900381819060005260206000200160009055905550505050565b60006122e983610d5a565b6001600160a01b039093166000908152603b602090815260408083208684528252808320859055938252603c9052919091209190915550565b6001600160e01b031981168114610ba657600080fd5b60006020828403121561234a57600080fd5b8135610e9c81612322565b60005b83811015612370578181015183820152602001612358565b50506000910152565b60008151808452612391816020860160208601612355565b601f01601f19169290920160200192915050565b602081526000610e9c6020830184612379565b6000602082840312156123ca57600080fd5b5035919050565b80356001600160a01b038116811461131557600080fd5b600080604083850312156123fb57600080fd5b612404836123d1565b946020939093013593505050565b60008060006060848603121561242757600080fd5b612430846123d1565b925061243e602085016123d1565b929592945050506040919091013590565b6000806040838503121561246257600080fd5b82359150612472602084016123d1565b90509250929050565b6000806020838503121561248e57600080fd5b823567ffffffffffffffff8111156124a557600080fd5b8301601f810185136124b657600080fd5b803567ffffffffffffffff8111156124cd57600080fd5b8560208260051b84010111156124e257600080fd5b6020919091019590945092505050565b602080825282518282018190526000918401906040840190835b8181101561252a57835183526020938401939092019160010161250c565b509095945050505050565b634e487b7160e01b600052604160045260246000fd5b60008067ffffffffffffffff84111561256657612566612535565b50604051601f19601f85018116603f0116810181811067ffffffffffffffff8211171561259557612595612535565b6040528381529050808284018510156125ad57600080fd5b83836020830137600060208583010152509392505050565b6000602082840312156125d757600080fd5b813567ffffffffffffffff8111156125ee57600080fd5b8201601f810184136125ff57600080fd5b6111298482356020840161254b565b60006020828403121561262057600080fd5b610e9c826123d1565b6000806040838503121561263c57600080fd5b50508035926020909101359150565b6000806040838503121561265e57600080fd5b612667836123d1565b91506020830135801515811461267c57600080fd5b809150509250929050565b6000806000806080858703121561269d57600080fd5b6126a6856123d1565b93506126b4602086016123d1565b925060408501359150606085013567ffffffffffffffff8111156126d757600080fd5b8501601f810187136126e857600080fd5b6126f78782356020840161254b565b91505092959194509250565b6000806040838503121561271657600080fd5b61271f836123d1565b9150612472602084016123d1565b600181811c9082168061274157607f821691505b60208210810361276157634e487b7160e01b600052602260045260246000fd5b50919050565b6020808252602d908201527f4552433732313a2063616c6c6572206973206e6f7420746f6b656e206f776e6560408201526c1c881bdc88185c1c1c9bdd9959609a1b606082015260800190565b634e487b7160e01b600052603260045260246000fd5b601f82111561073e57806000526020600020601f840160051c810160208510156127f15750805b601f840160051c820191505b8181101561211e57600081556001016127fd565b815167ffffffffffffffff81111561282b5761282b612535565b61283f81612839845461272d565b846127ca565b6020601f821160018114612873576000831561285b5750848201515b600019600385901b1c1916600184901b17845561211e565b600084815260208120601f198516915b828110156128a35787850151825560209485019460019092019101612883565b50848210156128c15786840151600019600387901b60f8161c191681555b50505050600190811b01905550565b600083516128e2818460208801612355565b8351908301906128f6818360208801612355565b01949350505050565b60208082526025908201527f4552433732313a207472616e736665722066726f6d20696e636f72726563742060408201526437bbb732b960d91b606082015260800190565b60208082526032908201527f4552433732313a207472616e7366657220746f206e6f6e20455243373231526560408201527131b2b4bb32b91034b6b83632b6b2b73a32b960711b606082015260800190565b7f416363657373436f6e74726f6c3a206163636f756e74200000000000000000008152600083516129ce816017850160208801612355565b7001034b99036b4b9b9b4b733903937b6329607d1b60179184019182015283516129ff816028840160208801612355565b01602801949350505050565b6001600160a01b0385811682528416602082015260408101839052608060608201819052600090612a3e90830184612379565b9695505050505050565b600060208284031215612a5a57600080fd5b8151610e9c81612322565b634e487b7160e01b600052601160045260246000fd5b808202811582820484141761056a5761056a612a65565b8082018082111561056a5761056a612a65565b600081612ab457612ab4612a65565b506000190190565b8181038181111561056a5761056a612a65565b634e487b7160e01b600052603160045260246000fd5b600060018201612af757612af7612a65565b506001019056fea2646970667358221220aa34a2b3b752c5d571d601cfabd2481c61572f8c5eccc857032ccc0e98e34f3964736f6c634300081b0033",
  "devdoc": {
    "events": {
      "Approval(address,address,uint256)": {
        "details": "Emitted when `owner` enables `approved` to manage the `tokenId` token."
      },
      "ApprovalForAll(address,address,bool)": {
        "details": "Emitted when `owner` enables or disables (`approved`) `operator` to manage all of its assets."
      },
      "NonceUpdated(uint256,uint256)": {
        "details": "Emitted when the token nonce is updated"
      },
      "Paused(address)": {
        "details": "Emitted when the pause is triggered by `account`."
      },
      "RoleAdminChanged(bytes32,bytes32,bytes32)": {
        "details": "Emitted when `newAdminRole` is set as ``role``'s admin role, replacing `previousAdminRole` `DEFAULT_ADMIN_ROLE` is the starting admin for all roles, despite {RoleAdminChanged} not being emitted signaling this. _Available since v3.1._"
      },
      "RoleGranted(bytes32,address,address)": {
        "details": "Emitted when `account` is granted `role`. `sender` is the account that originated the contract call, an admin role bearer except when using {AccessControl-_setupRole}."
      },
      "RoleRevoked(bytes32,address,address)": {
        "details": "Emitted when `account` is revoked `role`. `sender` is the account that originated the contract call:   - if using `revokeRole`, it is the admin role bearer   - if using `renounceRole`, it is the role bearer (i.e. `account`)"
      },
      "Transfer(address,address,uint256)": {
        "details": "Emitted when `tokenId` token is transferred from `from` to `to`."
      },
      "Unpaused(address)": {
        "details": "Emitted when the pause is lifted by `account`."
      }
    },
    "kind": "dev",
    "methods": {
      "approve(address,uint256)": {
        "details": "See {IERC721-approve}."
      },
      "balanceOf(address)": {
        "details": "See {IERC721-balanceOf}."
      },
      "bulkMint(address[])": {
        "details": "Bulk create new tokens for `_recipients`. Tokens ID will be automatically assigned (and available on the emitted {IERC721-Transfer} event), and the token URI autogenerated based on the base URI passed at construction. See {ERC721-_mint}. Requirements: - the caller must have the `MINTER_ROLE`."
      },
      "burn(uint256)": {
        "details": "Burns `tokenId`. See {ERC721-_burn}. Requirements: - The caller must own `tokenId` or be an approved operator."
      },
      "getApproved(uint256)": {
        "details": "See {IERC721-getApproved}."
      },
      "getRoleAdmin(bytes32)": {
        "details": "Returns the admin role that controls `role`. See {grantRole} and {revokeRole}. To change a role's admin, use {_setRoleAdmin}."
      },
      "getRoleMember(bytes32,uint256)": {
        "details": "Returns one of the accounts that have `role`. `index` must be a value between 0 and {getRoleMemberCount}, non-inclusive. Role bearers are not sorted in any particular way, and their ordering may change at any point. WARNING: When using {getRoleMember} and {getRoleMemberCount}, make sure you perform all queries on the same block. See the following https://forum.openzeppelin.com/t/iterating-over-elements-on-enumerableset-in-openzeppelin-contracts/2296[forum post] for more information."
      },
      "getRoleMemberCount(bytes32)": {
        "details": "Returns the number of accounts that have `role`. Can be used together with {getRoleMember} to enumerate all bearers of a role."
      },
      "grantRole(bytes32,address)": {
        "details": "Grants `role` to `account`. If `account` had not been already granted `role`, emits a {RoleGranted} event. Requirements: - the caller must have ``role``'s admin role. May emit a {RoleGranted} event."
      },
      "hasRole(bytes32,address)": {
        "details": "Returns `true` if `account` has been granted `role`."
      },
      "isApprovedForAll(address,address)": {
        "details": "See {IERC721-isApprovedForAll}."
      },
      "mint(address)": {
        "details": "Creates a new token for `to`. Its token ID will be automatically assigned (and available on the emitted {IERC721-Transfer} event), and the token URI autogenerated based on the base URI passed at construction. See {ERC721-_mint}. Requirements: - the caller must have the `MINTER_ROLE`."
      },
      "name()": {
        "details": "See {IERC721Metadata-name}."
      },
      "ownerOf(uint256)": {
        "details": "See {IERC721-ownerOf}."
      },
      "pause()": {
        "details": "Pauses all token transfers. See {ERC721Pausable} and {Pausable-_pause}. Requirements: - the caller must have the `PAUSER_ROLE`."
      },
      "paused()": {
        "details": "Returns true if the contract is paused, and false otherwise."
      },
      "renounceRole(bytes32,address)": {
        "details": "Revokes `role` from the calling account. Roles are often managed via {grantRole} and {revokeRole}: this function's purpose is to provide a mechanism for accounts to lose their privileges if they are compromised (such as when a trusted device is misplaced). If the calling account had been revoked `role`, emits a {RoleRevoked} event. Requirements: - the caller must be `account`. May emit a {RoleRevoked} event."
      },
      "revokeRole(bytes32,address)": {
        "details": "Revokes `role` from `account`. If `account` had been granted `role`, emits a {RoleRevoked} event. Requirements: - the caller must have ``role``'s admin role. May emit a {RoleRevoked} event."
      },
      "safeTransferFrom(address,address,uint256)": {
        "details": "See {IERC721-safeTransferFrom}."
      },
      "safeTransferFrom(address,address,uint256,bytes)": {
        "details": "See {IERC721-safeTransferFrom}."
      },
      "setApprovalForAll(address,bool)": {
        "details": "See {IERC721-setApprovalForAll}."
      },
      "stateOf(uint256)": {
        "details": "Returns the state of the `_tokenId` ERC721. Requirements: - The token exists."
      },
      "supportsInterface(bytes4)": {
        "details": "Override `IERC165-supportsInterface`."
      },
      "symbol()": {
        "details": "See {IERC721Metadata-symbol}."
      },
      "tokenByIndex(uint256)": {
        "details": "See {IERC721Enumerable-tokenByIndex}."
      },
      "tokenOfOwnerByIndex(address,uint256)": {
        "details": "See {IERC721Enumerable-tokenOfOwnerByIndex}."
      },
      "tokenURI(uint256)": {
        "details": "See {IERC721Metadata-tokenURI}."
      },
      "totalSupply()": {
        "details": "See {IERC721Enumerable-totalSupply}."
      },
      "transferFrom(address,address,uint256)": {
        "details": "See {IERC721-transferFrom}."
      },
      "unpause()": {
        "details": "Unpauses all token transfers. See {ERC721Pausable} and {Pausable-_unpause}. Requirements: - the caller must have the `PAUSER_ROLE`."
      }
    },
    "version": 1
  },
  "userdoc": {
    "kind": "user",
    "methods": {
      "stateOf(uint256)": {
        "notice": "The token state presents the properties of a token at a certain point in time, it should be unique. The token state helps other contracts can verify the token properties without getting and selecting properties from the base contract. For example: ```solidity contract Kitty {   function stateOf(uint256 _tokenId) external view returns (bytes memory) {     return abi.encodePacked(ownerOf(_tokenId), genesOf(_tokenId), levelOf(_tokenId));   } } interface Exchange {   // Buy NFT with the specificed state of `_tokenId`.   function buy(uint256 _tokenId, uint256 _price, bytes calldata _kittyState) external; } ```"
      }
    },
    "version": 1
  },
  "storageLayout": {
    "storage": [
      {
        "astId": 4862,
        "contract": "src/infomon/InfomonERC721.sol:InfomonERC721",
        "label": "_roles",
        "offset": 0,
        "slot": "0",
        "type": "t_mapping(t_bytes32,t_struct(RoleData)4857_storage)"
      },
      {
        "astId": 5172,
        "contract": "src/infomon/InfomonERC721.sol:InfomonERC721",
        "label": "_roleMembers",
        "offset": 0,
        "slot": "1",
        "type": "t_mapping(t_bytes32,t_struct(AddressSet)10259_storage)"
      },
      {
        "astId": 6914,
        "contract": "src/infomon/InfomonERC721.sol:InfomonERC721",
        "label": "_name",
        "offset": 0,
        "slot": "2",
        "type": "t_string_storage"
      },
      {
        "astId": 6916,
        "contract": "src/infomon/InfomonERC721.sol:InfomonERC721",
        "label": "_symbol",
        "offset": 0,
        "slot": "3",
        "type": "t_string_storage"
      },
      {
        "astId": 6920,
        "contract": "src/infomon/InfomonERC721.sol:InfomonERC721",
        "label": "_owners",
        "offset": 0,
        "slot": "4",
        "type": "t_mapping(t_uint256,t_address)"
      },
      {
        "astId": 6924,
        "contract": "src/infomon/InfomonERC721.sol:InfomonERC721",
        "label": "_balances",
        "offset": 0,
        "slot": "5",
        "type": "t_mapping(t_address,t_uint256)"
      },
      {
        "astId": 6928,
        "contract": "src/infomon/InfomonERC721.sol:InfomonERC721",
        "label": "_tokenApprovals",
        "offset": 0,
        "slot": "6",
        "type": "t_mapping(t_uint256,t_address)"
      },
      {
        "astId": 6934,
        "contract": "src/infomon/InfomonERC721.sol:InfomonERC721",
        "label": "_operatorApprovals",
        "offset": 0,
        "slot": "7",
        "type": "t_mapping(t_address,t_mapping(t_address,t_bool))"
      },
      {
        "astId": 11368,
        "contract": "src/infomon/InfomonERC721.sol:InfomonERC721",
        "label": "nonces",
        "offset": 0,
        "slot": "8",
        "type": "t_mapping(t_uint256,t_uint256)"
      },
      {
        "astId": 11373,
        "contract": "src/infomon/InfomonERC721.sol:InfomonERC721",
        "label": "______gap",
        "offset": 0,
        "slot": "9",
        "type": "t_array(t_uint256)50_storage"
      },
      {
        "astId": 7994,
        "contract": "src/infomon/InfomonERC721.sol:InfomonERC721",
        "label": "_ownedTokens",
        "offset": 0,
        "slot": "59",
        "type": "t_mapping(t_address,t_mapping(t_uint256,t_uint256))"
      },
      {
        "astId": 7998,
        "contract": "src/infomon/InfomonERC721.sol:InfomonERC721",
        "label": "_ownedTokensIndex",
        "offset": 0,
        "slot": "60",
        "type": "t_mapping(t_uint256,t_uint256)"
      },
      {
        "astId": 8001,
        "contract": "src/infomon/InfomonERC721.sol:InfomonERC721",
        "label": "_allTokens",
        "offset": 0,
        "slot": "61",
        "type": "t_array(t_uint256)dyn_storage"
      },
      {
        "astId": 8005,
        "contract": "src/infomon/InfomonERC721.sol:InfomonERC721",
        "label": "_allTokensIndex",
        "offset": 0,
        "slot": "62",
        "type": "t_mapping(t_uint256,t_uint256)"
      },
      {
        "astId": 5397,
        "contract": "src/infomon/InfomonERC721.sol:InfomonERC721",
        "label": "_paused",
        "offset": 0,
        "slot": "63",
        "type": "t_bool"
      },
      {
        "astId": 10766,
        "contract": "src/infomon/InfomonERC721.sol:InfomonERC721",
        "label": "_tokenIdTracker",
        "offset": 0,
        "slot": "64",
        "type": "t_struct(Counter)8789_storage"
      },
      {
        "astId": 10768,
        "contract": "src/infomon/InfomonERC721.sol:InfomonERC721",
        "label": "_baseTokenURI",
        "offset": 0,
        "slot": "65",
        "type": "t_string_storage"
      }
    ],
    "types": {
      "t_address": {
        "encoding": "inplace",
        "label": "address",
        "numberOfBytes": "20"
      },
      "t_array(t_bytes32)dyn_storage": {
        "base": "t_bytes32",
        "encoding": "dynamic_array",
        "label": "bytes32[]",
        "numberOfBytes": "32"
      },
      "t_array(t_uint256)50_storage": {
        "base": "t_uint256",
        "encoding": "inplace",
        "label": "uint256[50]",
        "numberOfBytes": "1600"
      },
      "t_array(t_uint256)dyn_storage": {
        "base": "t_uint256",
        "encoding": "dynamic_array",
        "label": "uint256[]",
        "numberOfBytes": "32"
      },
      "t_bool": {
        "encoding": "inplace",
        "label": "bool",
        "numberOfBytes": "1"
      },
      "t_bytes32": {
        "encoding": "inplace",
        "label": "bytes32",
        "numberOfBytes": "32"
      },
      "t_mapping(t_address,t_bool)": {
        "encoding": "mapping",
        "key": "t_address",
        "label": "mapping(address => bool)",
        "numberOfBytes": "32",
        "value": "t_bool"
      },
      "t_mapping(t_address,t_mapping(t_address,t_bool))": {
        "encoding": "mapping",
        "key": "t_address",
        "label": "mapping(address => mapping(address => bool))",
        "numberOfBytes": "32",
        "value": "t_mapping(t_address,t_bool)"
      },
      "t_mapping(t_address,t_mapping(t_uint256,t_uint256))": {
        "encoding": "mapping",
        "key": "t_address",
        "label": "mapping(address => mapping(uint256 => uint256))",
        "numberOfBytes": "32",
        "value": "t_mapping(t_uint256,t_uint256)"
      },
      "t_mapping(t_address,t_uint256)": {
        "encoding": "mapping",
        "key": "t_address",
        "label": "mapping(address => uint256)",
        "numberOfBytes": "32",
        "value": "t_uint256"
      },
      "t_mapping(t_bytes32,t_struct(AddressSet)10259_storage)": {
        "encoding": "mapping",
        "key": "t_bytes32",
        "label": "mapping(bytes32 => struct EnumerableSet.AddressSet)",
        "numberOfBytes": "32",
        "value": "t_struct(AddressSet)10259_storage"
      },
      "t_mapping(t_bytes32,t_struct(RoleData)4857_storage)": {
        "encoding": "mapping",
        "key": "t_bytes32",
        "label": "mapping(bytes32 => struct AccessControl.RoleData)",
        "numberOfBytes": "32",
        "value": "t_struct(RoleData)4857_storage"
      },
      "t_mapping(t_bytes32,t_uint256)": {
        "encoding": "mapping",
        "key": "t_bytes32",
        "label": "mapping(bytes32 => uint256)",
        "numberOfBytes": "32",
        "value": "t_uint256"
      },
      "t_mapping(t_uint256,t_address)": {
        "encoding": "mapping",
        "key": "t_uint256",
        "label": "mapping(uint256 => address)",
        "numberOfBytes": "32",
        "value": "t_address"
      },
      "t_mapping(t_uint256,t_uint256)": {
        "encoding": "mapping",
        "key": "t_uint256",
        "label": "mapping(uint256 => uint256)",
        "numberOfBytes": "32",
        "value": "t_uint256"
      },
      "t_string_storage": {
        "encoding": "bytes",
        "label": "string",
        "numberOfBytes": "32"
      },
      "t_struct(AddressSet)10259_storage": {
        "encoding": "inplace",
        "label": "struct EnumerableSet.AddressSet",
        "members": [
          {
            "astId": 10258,
            "contract": "src/infomon/InfomonERC721.sol:InfomonERC721",
            "label": "_inner",
            "offset": 0,
            "slot": "0",
            "type": "t_struct(Set)9944_storage"
          }
        ],
        "numberOfBytes": "64"
      },
      "t_struct(Counter)8789_storage": {
        "encoding": "inplace",
        "label": "struct Counters.Counter",
        "members": [
          {
            "astId": 8788,
            "contract": "src/infomon/InfomonERC721.sol:InfomonERC721",
            "label": "_value",
            "offset": 0,
            "slot": "0",
            "type": "t_uint256"
          }
        ],
        "numberOfBytes": "32"
      },
      "t_struct(RoleData)4857_storage": {
        "encoding": "inplace",
        "label": "struct AccessControl.RoleData",
        "members": [
          {
            "astId": 4854,
            "contract": "src/infomon/InfomonERC721.sol:InfomonERC721",
            "label": "members",
            "offset": 0,
            "slot": "0",
            "type": "t_mapping(t_address,t_bool)"
          },
          {
            "astId": 4856,
            "contract": "src/infomon/InfomonERC721.sol:InfomonERC721",
            "label": "adminRole",
            "offset": 0,
            "slot": "1",
            "type": "t_bytes32"
          }
        ],
        "numberOfBytes": "64"
      },
      "t_struct(Set)9944_storage": {
        "encoding": "inplace",
        "label": "struct EnumerableSet.Set",
        "members": [
          {
            "astId": 9939,
            "contract": "src/infomon/InfomonERC721.sol:InfomonERC721",
            "label": "_values",
            "offset": 0,
            "slot": "0",
            "type": "t_array(t_bytes32)dyn_storage"
          },
          {
            "astId": 9943,
            "contract": "src/infomon/InfomonERC721.sol:InfomonERC721",
            "label": "_indexes",
            "offset": 0,
            "slot": "1",
            "type": "t_mapping(t_bytes32,t_uint256)"
          }
        ],
        "numberOfBytes": "64"
      },
      "t_uint256": {
        "encoding": "inplace",
        "label": "uint256",
        "numberOfBytes": "32"
      }
    }
  }
}